:020000020000FC
:020000001CC022
:02002000C7C156
:10003800ABC08FE58DBF84E08EBF8FEF87BB81BBE0
:10004800882780EF84BBC2E08F9380E487B98FE86C
:1000580086B988278F918F9384E089BF85E08EBD0C
:100068008CEF8DBD83EF8CBD88278F9178945527B1
:1000780055D288279927CAD1803021F4903011F4BD
:1000880021E001C020E02130B1F3DED1823311F448
:1000980031E001C030E030FF41C0B8D1803021F4F8
:1000A800903011F421E001C020E02130B1F3DC01EF
:1000B800CBD1813311F431E001C030E0303071F13F
:1000C8002DD29F938F93C2E0882789BF04301CF0FC
:1000D80090E898BB03C096B3906898BB87E50AD2AE
:1000E80085E408D28CE406D283E404D28FE402D2F9
:1000F8008DE400D285E4FED180E2FCD182E3FAD11E
:1001080081E3F8D180EA9FE046D296B39F7798BB07
:100118008F9194E099BF9F91C2E0ABCF9F938F934B
:1001280086B3806888BB84EF91E035D286B38F7739
:1001380088BB84EF91E02FD286B3806888BB84EFB8
:1001480091E029D286B38F7788BB84EF91E023D2E0
:1001580086B3806888BB84EF91E01DD286B38F7721
:1001680088BB84EF91E017D286B3806888BB84EFA0
:1001780091E011D286B38F7788BB84EF91E00BD2E0
:10018800C2E08F919F9175CFAF939F938F937F9389
:100198006F9394B1A5B1A370A33029F1A230F1F007
:1001A800A130E9F09E3CE0F49E37D8F49934D0F4BD
:1001B8008F93C13061F0B2D1C1E083E49BD18CE46C
:1001C80099D185E497D181E495D182E593D18F9136
:1001D80001E066B36078616068BBE0C030C05BC0B6
:1001E80086C0B1C0C6C08F93C030E1F097D1C0E0DF
:1001F80087E480D181E47ED183E57CD180E27AD125
:1002080084E478D185E476D184E574D185E472D12B
:1002180083E470D184E56ED185E46CD184E46AD13D
:1002280081E268D18F9107E066B36078503019F0A9
:1002380068BB50E0B3C06F6768BB51E0AFC08F9335
:10024800C030E1F06BD1C0E087E454D181E452D1F1
:1002580083E550D180E24ED184E44CD185E44AD183
:1002680084E548D185E446D183E444D184E542D18C
:1002780085E440D184E43ED181E23CD18F9106E00F
:1002880066B36078503019F068BB50E087C06F6380
:1002980068BB51E083C08F93C030E1F03FD1C0E02C
:1002A80087E428D181E426D183E524D180E222D1D4
:1002B80084E420D185E41ED184E51CD185E41AD1DB
:1002C80083E418D184E516D185E414D184E412D1ED
:1002D80081E210D18F9105E066B36078503019F053
:1002E80068BB50E05BC06F6168BB51E057C08F933B
:1002F800C030E1F013D1C0E087E4FCD081E4FAD04B
:1003080083E5F8D080E2F6D084E4F4D085E4F2D036
:1003180084E5F0D085E4EED083E4ECD084E5EAD03F
:1003280085E4E8D084E4E6D081E2E4D08F9104E06B
:1003380066B36078503019F068BB50E02FC06F602A
:1003480068BB51E02BC08F93C13061F0E7D0C1E0AA
:1003580083E4D0D08CE4CED085E4CCD081E4CAD07C
:1003680082E5C8D08F9103E066B36078676068BBA8
:1003780015C08F93C13061F0D1D0C1E083E4BAD009
:100388008CE4B8D085E4B6D081E4B4D082E5B2D0AC
:100398008F9102E066B36078636068BB6F917F916C
:1003A8008F919F91AF911895AF939F938F93A6B11B
:1003B80090E4A92BA6B98CEF8DBD83EF8CBD8F91EE
:1003C8009F91AF91189595BB8F939F9384EF91E080
:1003D800ECD09F918F910000000083B38F70089537
:1003E800AF93BF9390E1EFDF8295B82F90E2EBDFF8
:1003F800B80F90E4E8DF8295A82F90E8E4DFA80F13
:10040800CD01AA27A5BBBF91AF9108956F937F93A4
:10041800AF93BF93E5DF8F939F938FE090E0BBD0BE
:10042800DFDF7F916F9186239723A0E6B0E07D916F
:100438006C918C939E937095609586239723BF91BA
:10044800AF917F916F910895AF93BF93DC018AE2DA
:10045800A0FD2FC080E3A1FD2CC083E2A2FD29C02E
:1004680084E4A3FD26C087E3A4FD23C088E3A5FD9B
:1004780020C089E3A6FD1DC083E4A7FD1AC084E35C
:10048800B0FD17C085E3B1FD14C086E3B2FD11C00D
:1004980082E4B3FD0EC081E3B4FD0BC082E3B5FD79
:1004A80008C083E3B6FD05C081E4B7FD02C0882714
:1004B80000C0BF91AF9108958F939F9380E797E114
:1004C80074D09F918F918F9390B39F70807F890F85
:1004D80082BB939A93988F939F9380E797E165D017
:1004E8009F918F918F918295807F890F82BB939A7C
:1004F800939808958F939F93929ADEDF8BE290E012
:1005080054D09F918F9108958F939F939298D4DFA1
:1005180087E290E04AD09F918F9108958F939F939F
:1005280088E290E038D080E382BB939A939887E280
:1005380090E03BD08F939F9388EE93E036D09F91C5
:100548008F9180E382BB939A939887E290E02DD0B5
:100558008F939F9388EE93E028D09F918F9180E2AC
:1005680082BB939A939887E290E01FD08F939F93D2
:1005780088EE93E01AD09F918F9188E2C5DF8CE0D6
:10058800C3DF81E0C1DF8AEF95E00FD086E0BCDFF2
:100598009F918F9108958F939F9386EE93E005D056
:1005A8009F918F910197B9F7089501970000000076
:0805B80000000000D1F70895D6
:00000001FF
