S01000004176723341736B322E7372656367
S11300000C942A000C943C000C943C000C943C008E
S11300100C943C000C943C000C943C000C943C006C
S11300200C9414020C943C000C943C000C943C0082
S11300300C943C000C943C000C94C9010C943C00BE
S11300400C943C000C943C000C943C000C943C003C
S11300500C943C0011241FBECFE5D4E0DEBFCDBF1D
S113006020E0A0E6B0E001C01D92AE36B207E1F791
S11300700E9450020C9490040C94000090E1899F1B
S11300809001112482958F70822B089580916800CD
S113009080FD24C081FD24C082FD24C083FD24C0D2
S11300A084FD24C085FD24C086FD24C0882324F15A
S11300B09091690090FD22C091FD22C092FD22C062
S11300C093FD22C094FD22C095FD22C0892F807427
S11300D096FD20C09923FCF481E408958AE20895F2
S11300E080E3089583E2089584E4089587E30895FE
S11300F088E3089589E3089583E4089584E30895E3
S113010085E3089586E3089582E4089581E30895DC
S113011082E3089583E308958091660090916700D7
S11301208E3191058CF08233910584F086349105EB
S11301307CF08035910574F0893691056CF08C382B
S1130140910564F48FE3089581E0089583E00895B0
S113015087E008958FE008958FE108958FE708956B
S1130160CF92DF92EF92FF92CF93DF93CDB7DEB7BA
S113017060970FB6F894DEBF0FBECDBF80E090E06D
S1130180A1E0B3E489839A83AB83BC838DEC9CECBC
S1130190ACECBDE38D839E83AF83B88764B175B146
S11301A080E090E00E94950320E030E040EA50E4D3
S11301B00E94230420E030E040E85AE30E94230434
S11301C069877A878B879C8769817A818B819C81F7
S11301D027E137EB41ED58E30E9423046D877E87C6
S11301E08F87988B2D853E854F85588960E070E018
S11301F080E89FE30E94ED026B017C0169857A85AA
S11302008B859C852D813E814F8158850E9480027B
S11302109B01AC01C701B6010E9423040E945F0345
S1130220CB0160960FB6F894DEBF0FBECDBFDF9151
S1130230CF91FF90EF90DF90CF90089581E080936D
S113024062008093640080916500806888BB2FEF12
S113025087EA91E6215080409040E1F700C0000019
S11302608091650088BB109264001092620008952A
S113027020E030E020C081E080936400809165003C
S1130280806888BB4FEF84E39CE0415080409040FD
S1130290E1F700C00000109264008091650088BB03
S11302A04FEF84E39CE0415080409040E1F700C070
S11302B000002F5F3F4F24303105ECF2089528E011
S11302C030E002C0220F331F8A95E2F725BB87EE88
S11302D093E00197F1F700C0000083B38F70089595
S11302E0CF93DF9381E090E00E945F010E943E0083
S11302F0C8E6D0E0898382E090E00E945F019981A2
S1130300890F898383E090E00E945F010E943E0090
S1130310888384E090E00E945F019881890F88833C
S113032015BADF91CF9108950F931F93CF93DF9365
S11303300E947001C8E6D0E0088119818FE094EA38
S11303400197F1F700C000000E9470018881902F8E
S1130350982329812123EBE6F0E080813181908389
S11303602183809589238883932F9095292329833A
S1130370811105C0222331F081E090E005C081E0C5
S113038090E002C080E090E0DF91CF911F910F9147
S113039008951F920F920FB60F9211242F933F933B
S11303A04F935F936F937F938F939F93AF93BF9379
S11303B0EF93FF930E94B0009093670080936600D0
S11303C00E948C0080936500809164008795882743
S11303D0879588BB8091660090916700873491056A
S11303E054F020916300222331F098B3809165008A
S11303F0892B88BB08C0873491052CF498B380916D
S11304006500892B88BBFF91EF91BF91AF919F91BC
S11304108F917F916F915F914F913F912F910F90A9
S11304200FBE0F901F9018951F920F920FB60F9248
S113043011248F939F9386B1806486B983EF9CEFD8
S11304409DBD8CBD85E08EBD809160009091610062
S1130450029789F481E090916300911180E0809388
S1130460630080916200813011F4809363001092E4
S1130470610010926000809160009091610001968B
S113048090936100809360009F918F910F900FBEB5
S11304900F901F90189580E487B98FE886B9089566
S11304A08FEF87BB80EF84BB0E944B0284E089BF3F
S11304B085E08EBD83EF9CEF9DBD8CBD7894EBE60B
S11304C0F0E01082118218BA0E949401892BE1F3A2
S11304D00E94460080936D000E949401892BE1F3F1
S11304E00E94460080936A0090916D00923329F433
S11304F0813319F40E941E01E2CF0E943801DFCF3C
S11305005058BB27AA270E9498020C94E9030E9422
S1130510DB0338F00E94E20320F039F49F3F19F422
S113052026F40C94D8030EF4E095E7FB0C94D20364
S1130530E92F0E94FA0358F3BA1762077307840776
S1130540950720F079F4A6F50C941C040EF4E095BC
S11305500B2EBA2FA02D0B01B90190010C01CA0179
S1130560A0011124FF27591B99F0593F50F4503E24
S113057068F11A16F040A22F232F342F4427585F16
S1130580F3CF469537952795A795F0405395C9F72E
S11305907EF41F16BA0B620B730B840BBAF09150E6
S11305A0A1F0FF0FBB1F661F771F881FC2F70EC085
S11305B0BA0F621F731F841F48F487957795679558
S11305C0B795F7959E3F08F0B0CF9395880F08F044
S11305D09927EE0F9795879508950E9401030C942F
S11305E0E9030E94E20358F00E94DB0340F029F47F
S11305F05F3F29F00C94D20351110C941D040C9408
S1130600D8030E94FA0368F39923B1F3552391F3B5
S1130610951B550BBB27AA2762177307840738F06D
S11306209F5F5F4F220F331F441FAA1FA9F335D0CA
S11306300E2E3AF0E0E832D091505040E695001C7E
S1130640CAF72BD0FE2F29D0660F771F881FBB1F38
S1130650261737074807AB07B0E809F0BB0B802D16
S1130660BF01FF2793585F4F3AF09E3F510578F042
S11306700C94D2030C941D045F3FE4F3983ED4F32E
S1130680869577956795B795F7959F5FC9F7880F16
S1130690911D9695879597F90895E1E0660F771F68
S11306A0881FBB1F621773078407BA0720F0621BF9
S11306B0730B840BBA0BEE1F88F7E09508950E9424
S11306C066036894B1110C941D0408950E940204F9
S11306D088F09F5798F0B92F9927B751B0F0E1F0FF
S11306E0660F771F881F991F1AF0BA95C9F714C0AF
S11306F0B13091F00E941C04B1E008950C941C04E4
S1130700672F782F8827B85F39F0B93FCCF38695E7
S113071077956795B395D9F73EF490958095709544
S113072061957F4F8F4F9F4F0895E89409C097FBC1
S11307303EF490958095709561957F4F8F4F9F4FB4
S11307409923A9F0F92F96E9BB279395F6958795F8
S113075077956795B795F111F8CFFAF4BB0F11F4BB
S113076060FF1BC06F5F7F4F8F4F9F4F16C0882362
S113077011F096E911C0772321F09EE8872F762F98
S113078005C0662371F096E8862F70E060E02AF0D9
S11307909A95660F771F881FDAF7880F96958795C5
S11307A097F9089597F99F6780E870E060E00895ED
S11307B09FEF80EC089500240A9416161706180675
S11307C00906089500240A94121613061406050651
S11307D00895092E0394000C11F4882352F0BB0FE2
S11307E040F4BF2B11F460FF04C06F5F7F4F8F4F45
S11307F09F4F089557FD9058440F551F59F05F3F80
S113080071F04795880F97FB991F61F09F3F79F02E
S113081087950895121613061406551FF2CF4695B0
S1130820F1DF08C0161617061806991FF1CF869532
S11308307105610508940895E894BB276627772716
S1130840CB0197F908950E9436040C94E9030E94A1
S1130850DB0338F00E94E20320F0952311F00C949E
S1130860D2030C94D80311240C941D040E94FA039F
S113087070F3959FC1F3950F50E0551F629FF001EF
S1130880729FBB27F00DB11D639FAA27F00DB11D08
S1130890AA1F649F6627B00DA11D661F829F222791
S11308A0B00DA11D621F739FB00DA11D621F839F18
S11308B0A00D611D221F749F3327A00D611D231FEE
S11308C0849F600D211D822F762F6A2F11249F573C
S11308D050409AF0F1F088234AF0EE0FFF1FBB1F3F
S11308E0661F771F881F91505040A9F79E3F5105FE
S11308F080F00C94D2030C941D045F3FE4F3983E03
S1130900D4F3869577956795B795F795E7959F5FA7
S1130910C1F7FE2B880F911D9695879597F9089539
S1070920F894FFCF75
S9030000FC
