S00C000061736B332E73726563A6
S11300000C942A000C9436000C9434000C943400A4
S11300100C9434000C9434000C9434000C9434008C
S11300200C9434000C9434000C9434000C9434007C
S11300300C9434000C9434000C9434000C9434006C
S11300400C9434000C9434000C9434000C9434005C
S11300500C94340011241FBECFE5D4E0DEBFCDBF25
S11300600E9483000C948E000C9400001F920F9247
S11300700FB60F9211242F933F934F935F936F9377
S11300807F938F939F93EF93FF93F9B3E6B340E08D
S113009050E021E030E060E070E010C08E2F90E08E
S11300A082239323042E02C0959587950A94E2F740
S11300B0680F791F220F331F4F5F5F4F2F3F3105AA
S11300C069F364F3F2FD08C0CB010DC0880F991FDA
S11300D001962F5F3F4F04C020E030E080E090E0C5
S11300E0261737079CF385BBFF91EF919F918F9162
S11300F07F916F915F914F913F912F910F900FBE20
S11301000F901F9018951ABA17BA8FEF84BB80E42A
S11301108BBF83E085BF78940000FECFF894FFCFB7
S9030000FC
