:020000020000FC
:1000000000C044278FE58DBF84E08EBF8FEF87BB94
:1000100081BB80EF84BB80EF7AD06627682B692B89
:100020006030C9F3903219F4803009F401C051E016
:1000300080EF6DD06627682B692B6030C9F3513093
:1000400011F1803001F59031F1F461D02FEF28BB30
:10005000E6D087E5D0D085E4CED08CE4CCD083E464
:10006000CAD08FE4C8D08DE4C6D085E4C4D080E285
:10007000C2D082E3C0D081E3BED080EA9FE00CD141
:10008000442748BBC8CF43D0CAD081E4B4D08CE465
:10009000B2D081E4B0D082E5AED08DE4ACD080E2C5
:1000A000AAD08FE4A8D08EE4A6D054E02FEF28BBCE
:1000B00084EF91E0F1D0442748BB84EF91E0ECD08D
:1000C0005A95503099F7A7CF95BB8F939F9384EFA4
:1000D00091E0ECD09F918F910000000083B38F706E
:1000E0000895AF93BF9390E1EFDF8295B82F90E230
:1000F000EBDFB80F90E4E8DF8295A82F90E8E4DF0B
:10010000A80FCD01AA27A5BBBF91AF9108956F930A
:100110007F93AF93BF93E5DF8F939F938FE090E042
:10012000BBD0DFDF7F916F9186239723A0E6B0E0FD
:100130007D916C918C939E93709560958623972307
:10014000BF91AF917F916F910895AF93BF93DC0101
:100150008AE2A0FD2FC080E3A1FD2CC083E2A2FDB6
:1001600029C084E4A3FD26C087E3A4FD23C088E35F
:10017000A5FD20C089E3A6FD1DC083E4A7FD1AC02C
:1001800084E3B0FD17C085E3B1FD14C086E3B2FD82
:1001900011C082E4B3FD0EC081E3B4FD0BC082E365
:1001A000B5FD08C083E3B6FD05C081E4B7FD02C01C
:1001B000882700C0BF91AF9108958F939F9380E7E8
:1001C00097E174D09F918F918F9390B39F70807FB0
:1001D000890F82BB939A93988F939F9380E797E1BF
:1001E00065D09F918F918F918295807F890F82BB7F
:1001F000939A939808958F939F93929ADEDF8BE260
:1002000090E054D09F918F9108958F939F939298EF
:10021000D4DF87E290E04AD09F918F9108958F9329
:100220009F9388E290E038D080E382BB939A9398C2
:1002300087E290E03BD08F939F9388EE93E036D097
:100240009F918F9180E382BB939A939887E290E08D
:100250002DD08F939F9388EE93E028D09F918F911C
:1002600080E282BB939A939887E290E01FD08F93AD
:100270009F9388EE93E01AD09F918F9188E2C5DF1B
:100280008CE0C3DF81E0C1DF8AEF95E00FD086E02C
:10029000BCDF9F918F9108958F939F9386EE93E09B
:1002A00005D09F918F910197B9F7089501970000AC
:0A02B000000000000000D1F70895DF
:00000001FF
