:100000000C942A000C943C000C943C000C943C0092
:100010000C943C000C943C000C943C000C943C0070
:100020000C943C000C943C000C943C000C943C0060
:100030000C943C000C943C000C943C000C943C0050
:100040000C943C000C943C000C943C000C943C0040
:100050000C943C0011241FBECFE5D4E0DEBFCDBF21
:1000600020E0A0E6B0E001C01D92A636B207E1F79D
:100070000E9420010C9449010C9400008FEF88BB72
:100080002FEF87EA91E6215080409040E1F700C0D1
:10009000000018BA089580E090E016C02FEF28BB4A
:1000A0002FEF34E34CE0215030404040E1F700C0F6
:1000B000000018BA2FEF34E34CE0215030404040AC
:1000C000E1F700C000000196843091053CF30895EB
:1000D00028E030E002C0220F331F8A95E2F725BBEB
:1000E00087EE93E00197F1F700C0000083B38F70B3
:1000F000089590E1899F9001112482958F70822B41
:100100000895CF93DF9381E090E00E9468000E9401
:100110007900C0E6D0E0898382E090E00E94680028
:100120009981890F898383E090E00E9468000E9492
:100130007900888384E090E00E9468009881890FAC
:10014000888315BADF91CF9108950F931F93CF93B2
:10015000DF930E948100C0E6D0E0088119818FE022
:1001600094EA0197F1F700C000000E9481008881A5
:10017000902F982329812123E3E6F0E080813181CB
:1001800090832183809589238883932F90952923B9
:100190002983811105C0222331F081E090E005C060
:1001A00081E090E002C080E090E0DF91CF911F916C
:1001B0000F9108958091600080FD24C081FD24C0CE
:1001C00082FD24C083FD24C084FD24C085FD24C09D
:1001D00086FD24C0882324F19091610090FD22C007
:1001E00091FD22C092FD22C093FD22C094FD22C049
:1001F00095FD22C0892F807496FD20C09923FCF4C0
:1002000081E408958AE2089580E3089583E20895E1
:1002100084E4089587E3089588E3089589E30895C1
:1002200083E4089584E3089585E3089586E30895BB
:1002300082E4089581E3089582E3089583E30895B5
:100240008FEF87BB80EF84BBE3E6F0E01082118282
:1002500018BA0E94A500892BE1F30E94DA0080936E
:1002600065000E94A500892BE1F30E94DA008093CB
:1002700062000E94A50080916500823339F480916C
:100280006200813319F40E943E00DECF0E944B00D1
:06029000DBCFF894FFCF64
:00000001FF
