S00E000061736B315F632E73726563E4
S11300000C942A000C943C000C943C000C943C008E
S11300100C943C000C943C000C943C000C943C006C
S11300200C943C000C943C000C943C000C943C005C
S11300300C943C000C943C000C943C000C943C004C
S11300400C943C000C943C000C943C000C943C003C
S11300500C943C0011241FBECFE5D4E0DEBFCDBF1D
S113006020E0A0E6B0E001C01D92A636B207E1F799
S11300700E943E000C9487000C94000014BA8FEF89
S113008087BB23B3A22FA170A0936100822F82703B
S113009090E095958795B82F80936300422F447024
S11300A050E05595479555954795409365002870C0
S11300B030E03595279535952795359527952093E7
S11300C0600061E070E0AA2311F060E070E0FC01E0
S11300D0E623F72361E070E0BB2311F060E070E0F9
S11300E064237523622373236E2B7F2BE1E0672B3C
S11300F009F0E0E0E09364009A2F9423282B922BDC
S1130100892F880F809362008E2B88BBBACFF89416
S1050110FFCF1B
S9030000FC
